{
  "_format": "hh-sol-artifact-1",
  "contractName": "VotingSystem",
  "sourceName": "contracts/Greeter.sol",
  "abi": [
    {
      "inputs": [],
      "stateMutability": "nonpayable",
      "type": "constructor"
    },
    {
      "anonymous": false,
      "inputs": [
        {
          "indexed": true,
          "internalType": "uint256",
          "name": "candidateId",
          "type": "uint256"
        },
        {
          "indexed": false,
          "internalType": "string",
          "name": "candidateName",
          "type": "string"
        }
      ],
      "name": "CandidateAdded",
      "type": "event"
    },
    {
      "anonymous": false,
      "inputs": [
        {
          "indexed": true,
          "internalType": "address",
          "name": "voter",
          "type": "address"
        },
        {
          "indexed": true,
          "internalType": "uint256",
          "name": "candidate",
          "type": "uint256"
        }
      ],
      "name": "Voted",
      "type": "event"
    },
    {
      "anonymous": false,
      "inputs": [
        {
          "indexed": true,
          "internalType": "address",
          "name": "voter",
          "type": "address"
        }
      ],
      "name": "VoterRegistered",
      "type": "event"
    },
    {
      "inputs": [
        {
          "internalType": "uint256",
          "name": "candidateId",
          "type": "uint256"
        },
        {
          "internalType": "string",
          "name": "candidateName",
          "type": "string"
        }
      ],
      "name": "addCandidate",
      "outputs": [],
      "stateMutability": "nonpayable",
      "type": "function"
    },
    {
      "inputs": [],
      "name": "admin",
      "outputs": [
        {
          "internalType": "address",
          "name": "",
          "type": "address"
        }
      ],
      "stateMutability": "view",
      "type": "function"
    },
    {
      "inputs": [
        {
          "internalType": "uint256",
          "name": "candidate",
          "type": "uint256"
        }
      ],
      "name": "getVoteCount",
      "outputs": [
        {
          "internalType": "uint256",
          "name": "",
          "type": "uint256"
        }
      ],
      "stateMutability": "view",
      "type": "function"
    },
    {
      "inputs": [
        {
          "internalType": "address",
          "name": "",
          "type": "address"
        }
      ],
      "name": "hasVoted",
      "outputs": [
        {
          "internalType": "bool",
          "name": "",
          "type": "bool"
        }
      ],
      "stateMutability": "view",
      "type": "function"
    },
    {
      "inputs": [
        {
          "internalType": "address",
          "name": "",
          "type": "address"
        }
      ],
      "name": "isRegistered",
      "outputs": [
        {
          "internalType": "bool",
          "name": "",
          "type": "bool"
        }
      ],
      "stateMutability": "view",
      "type": "function"
    },
    {
      "inputs": [],
      "name": "registerVoter",
      "outputs": [],
      "stateMutability": "nonpayable",
      "type": "function"
    },
    {
      "inputs": [],
      "name": "tokenAddress",
      "outputs": [
        {
          "internalType": "address",
          "name": "",
          "type": "address"
        }
      ],
      "stateMutability": "view",
      "type": "function"
    },
    {
      "inputs": [],
      "name": "totalVotes",
      "outputs": [
        {
          "internalType": "uint256",
          "name": "",
          "type": "uint256"
        }
      ],
      "stateMutability": "view",
      "type": "function"
    },
    {
      "inputs": [
        {
          "internalType": "uint256",
          "name": "candidate",
          "type": "uint256"
        }
      ],
      "name": "vote",
      "outputs": [],
      "stateMutability": "nonpayable",
      "type": "function"
    },
    {
      "inputs": [
        {
          "internalType": "uint256",
          "name": "",
          "type": "uint256"
        }
      ],
      "name": "voteCount",
      "outputs": [
        {
          "internalType": "uint256",
          "name": "",
          "type": "uint256"
        }
      ],
      "stateMutability": "view",
      "type": "function"
    }
  ],
  "bytecode": "0x60806040526000600560006101000a81548173ffffffffffffffffffffffffffffffffffffffff021916908373ffffffffffffffffffffffffffffffffffffffff16021790555034801561005257600080fd5b50336000806101000a81548173ffffffffffffffffffffffffffffffffffffffff021916908373ffffffffffffffffffffffffffffffffffffffff160217905550611101806100a26000396000f3fe608060405234801561001057600080fd5b506004361061009e5760003560e01c80639d76ea58116100665780639d76ea5814610159578063b2c2f2e814610177578063c3c5a547146101a7578063ecb617d9146101d7578063f851a440146101e15761009e565b80630121b93f146100a357806309eef43e146100bf5780630d15fd77146100ef5780631750a3d01461010d5780634fc8a20d14610129575b600080fd5b6100bd60048036038101906100b891906108b0565b6101ff565b005b6100d960048036038101906100d4919061093b565b61054b565b6040516100e69190610983565b60405180910390f35b6100f761056b565b60405161010491906109ad565b60405180910390f35b61012760048036038101906101229190610b0e565b610571565b005b610143600480360381019061013e91906108b0565b61069d565b60405161015091906109ad565b60405180910390f35b6101616106b5565b60405161016e9190610b79565b60405180910390f35b610191600480360381019061018c91906108b0565b6106db565b60405161019e91906109ad565b60405180910390f35b6101c160048036038101906101bc919061093b565b6106f8565b6040516101ce9190610983565b60405180910390f35b6101df610718565b005b6101e9610842565b6040516101f69190610b79565b60405180910390f35b600360003373ffffffffffffffffffffffffffffffffffffffff1673ffffffffffffffffffffffffffffffffffffffff16815260200190815260200160002060009054906101000a900460ff161561028c576040517f08c379a000000000000000000000000000000000000000000000000000000000815260040161028390610bf1565b60405180910390fd5b600260003373ffffffffffffffffffffffffffffffffffffffff1673ffffffffffffffffffffffffffffffffffffffff16815260200190815260200160002060009054906101000a900460ff16610318576040517f08c379a000000000000000000000000000000000000000000000000000000000815260040161030f90610c5d565b60405180910390fd5b60008111801561033b575060006004600083815260200190815260200160002054115b61037a576040517f08c379a000000000000000000000000000000000000000000000000000000000815260040161037190610cc9565b60405180910390fd5b600560009054906101000a900473ffffffffffffffffffffffffffffffffffffffff1673ffffffffffffffffffffffffffffffffffffffff166323b872dd333060016040518463ffffffff1660e01b81526004016103da93929190610d2e565b602060405180830381600087803b1580156103f457600080fd5b505af1158015610408573d6000803e3d6000fd5b505050506040513d601f19601f8201168201806040525081019061042c9190610d91565b61046b576040517f08c379a000000000000000000000000000000000000000000000000000000000815260040161046290610e0a565b60405180910390fd5b60046000828152602001908152602001600020600081548092919061048f90610e59565b91905055506001600360003373ffffffffffffffffffffffffffffffffffffffff1673ffffffffffffffffffffffffffffffffffffffff16815260200190815260200160002060006101000a81548160ff021916908315150217905550600160008154809291906104ff90610e59565b9190505550803373ffffffffffffffffffffffffffffffffffffffff167f4d99b957a2bc29a30ebd96a7be8e68fe50a3c701db28a91436490b7d53870ca460405160405180910390a350565b60036020528060005260406000206000915054906101000a900460ff1681565b60015481565b60008054906101000a900473ffffffffffffffffffffffffffffffffffffffff1673ffffffffffffffffffffffffffffffffffffffff163373ffffffffffffffffffffffffffffffffffffffff16146105ff576040517f08c379a00000000000000000000000000000000000000000000000000000000081526004016105f690610f14565b60405180910390fd5b600082118015610622575060006004600084815260200190815260200160002054145b610661576040517f08c379a000000000000000000000000000000000000000000000000000000000815260040161065890610f80565b60405180910390fd5b817fe83b2a43e7e82d975c8a0a6d2f045153c869e111136a34d1889ab7b598e396a3826040516106919190611017565b60405180910390a25050565b60046020528060005260406000206000915090505481565b600560009054906101000a900473ffffffffffffffffffffffffffffffffffffffff1681565b600060046000838152602001908152602001600020549050919050565b60026020528060005260406000206000915054906101000a900460ff1681565b600260003373ffffffffffffffffffffffffffffffffffffffff1673ffffffffffffffffffffffffffffffffffffffff16815260200190815260200160002060009054906101000a900460ff16156107a5576040517f08c379a000000000000000000000000000000000000000000000000000000000815260040161079c906110ab565b60405180910390fd5b6001600260003373ffffffffffffffffffffffffffffffffffffffff1673ffffffffffffffffffffffffffffffffffffffff16815260200190815260200160002060006101000a81548160ff0219169083151502179055503373ffffffffffffffffffffffffffffffffffffffff167fb6be2187d059cc2a55fe29e0e503b566e1e0f8c8780096e185429350acffd3dd60405160405180910390a2565b60008054906101000a900473ffffffffffffffffffffffffffffffffffffffff1681565b6000604051905090565b600080fd5b600080fd5b6000819050919050565b61088d8161087a565b811461089857600080fd5b50565b6000813590506108aa81610884565b92915050565b6000602082840312156108c6576108c5610870565b5b60006108d48482850161089b565b91505092915050565b600073ffffffffffffffffffffffffffffffffffffffff82169050919050565b6000610908826108dd565b9050919050565b610918816108fd565b811461092357600080fd5b50565b6000813590506109358161090f565b92915050565b60006020828403121561095157610950610870565b5b600061095f84828501610926565b91505092915050565b60008115159050919050565b61097d81610968565b82525050565b60006020820190506109986000830184610974565b92915050565b6109a78161087a565b82525050565b60006020820190506109c2600083018461099e565b92915050565b600080fd5b600080fd5b6000601f19601f8301169050919050565b7f4e487b7100000000000000000000000000000000000000000000000000000000600052604160045260246000fd5b610a1b826109d2565b810181811067ffffffffffffffff82111715610a3a57610a396109e3565b5b80604052505050565b6000610a4d610866565b9050610a598282610a12565b919050565b600067ffffffffffffffff821115610a7957610a786109e3565b5b610a82826109d2565b9050602081019050919050565b82818337600083830152505050565b6000610ab1610aac84610a5e565b610a43565b905082815260208101848484011115610acd57610acc6109cd565b5b610ad8848285610a8f565b509392505050565b600082601f830112610af557610af46109c8565b5b8135610b05848260208601610a9e565b91505092915050565b60008060408385031215610b2557610b24610870565b5b6000610b338582860161089b565b925050602083013567ffffffffffffffff811115610b5457610b53610875565b5b610b6085828601610ae0565b9150509250929050565b610b73816108fd565b82525050565b6000602082019050610b8e6000830184610b6a565b92915050565b600082825260208201905092915050565b7f596f75206861766520616c726561647920766f74656400000000000000000000600082015250565b6000610bdb601683610b94565b9150610be682610ba5565b602082019050919050565b60006020820190508181036000830152610c0a81610bce565b9050919050565b7f596f7520617265206e6f742061207265676973746572656420766f7465720000600082015250565b6000610c47601e83610b94565b9150610c5282610c11565b602082019050919050565b60006020820190508181036000830152610c7681610c3a565b9050919050565b7f496e76616c69642063616e646964617465000000000000000000000000000000600082015250565b6000610cb3601183610b94565b9150610cbe82610c7d565b602082019050919050565b60006020820190508181036000830152610ce281610ca6565b9050919050565b6000819050919050565b6000819050919050565b6000610d18610d13610d0e84610ce9565b610cf3565b61087a565b9050919050565b610d2881610cfd565b82525050565b6000606082019050610d436000830186610b6a565b610d506020830185610b6a565b610d5d6040830184610d1f565b949350505050565b610d6e81610968565b8114610d7957600080fd5b50565b600081519050610d8b81610d65565b92915050565b600060208284031215610da757610da6610870565b5b6000610db584828501610d7c565b91505092915050565b7f546f6b656e207472616e73666572206661696c65640000000000000000000000600082015250565b6000610df4601583610b94565b9150610dff82610dbe565b602082019050919050565b60006020820190508181036000830152610e2381610de7565b9050919050565b7f4e487b7100000000000000000000000000000000000000000000000000000000600052601160045260246000fd5b6000610e648261087a565b91507fffffffffffffffffffffffffffffffffffffffffffffffffffffffffffffffff821415610e9757610e96610e2a565b5b600182019050919050565b7f4f6e6c792061646d696e2063616e20706572666f726d2074686973206163746960008201527f6f6e000000000000000000000000000000000000000000000000000000000000602082015250565b6000610efe602283610b94565b9150610f0982610ea2565b604082019050919050565b60006020820190508181036000830152610f2d81610ef1565b9050919050565b7f496e76616c69642063616e646964617465204944000000000000000000000000600082015250565b6000610f6a601483610b94565b9150610f7582610f34565b602082019050919050565b60006020820190508181036000830152610f9981610f5d565b9050919050565b600081519050919050565b60005b83811015610fc9578082015181840152602081019050610fae565b83811115610fd8576000848401525b50505050565b6000610fe982610fa0565b610ff38185610b94565b9350611003818560208601610fab565b61100c816109d2565b840191505092915050565b600060208201905081810360008301526110318184610fde565b905092915050565b7f596f752061726520616c72656164792061207265676973746572656420766f7460008201527f6572000000000000000000000000000000000000000000000000000000000000602082015250565b6000611095602283610b94565b91506110a082611039565b604082019050919050565b600060208201905081810360008301526110c481611088565b905091905056fea26469706673582212201b3ec80c93c6470ee69ed5222d8de160c50ffee0a84ff9b6eccd28b872513f6864736f6c63430008090033",
  "linkReferences": {},
  "deployedLinkReferences": {}
}